{
  "contractName": "Lock",
  "abi": [
    {
      "inputs": [],
      "stateMutability": "nonpayable",
      "type": "constructor"
    },
    {
      "anonymous": false,
      "inputs": [
        {
          "indexed": true,
          "internalType": "uint256",
          "name": "candidateId",
          "type": "uint256"
        },
        {
          "indexed": false,
          "internalType": "uint256",
          "name": "age",
          "type": "uint256"
        },
        {
          "indexed": false,
          "internalType": "string",
          "name": "name",
          "type": "string"
        },
        {
          "indexed": false,
          "internalType": "string",
          "name": "image",
          "type": "string"
        },
        {
          "indexed": false,
          "internalType": "uint256",
          "name": "votecount",
          "type": "uint256"
        },
        {
          "indexed": false,
          "internalType": "address",
          "name": "_address",
          "type": "address"
        },
        {
          "indexed": false,
          "internalType": "string",
          "name": "moto",
          "type": "string"
        }
      ],
      "name": "CandidateAdded",
      "type": "event"
    },
    {
      "anonymous": false,
      "inputs": [
        {
          "indexed": true,
          "internalType": "uint256",
          "name": "voterId",
          "type": "uint256"
        },
        {
          "indexed": false,
          "internalType": "string",
          "name": "name",
          "type": "string"
        },
        {
          "indexed": false,
          "internalType": "string",
          "name": "image",
          "type": "string"
        },
        {
          "indexed": false,
          "internalType": "address",
          "name": "_address",
          "type": "address"
        },
        {
          "indexed": false,
          "internalType": "uint256",
          "name": "allowed",
          "type": "uint256"
        },
        {
          "indexed": false,
          "internalType": "bool",
          "name": "voted",
          "type": "bool"
        },
        {
          "indexed": false,
          "internalType": "uint256",
          "name": "votedCandidateId",
          "type": "uint256"
        },
        {
          "indexed": false,
          "internalType": "string",
          "name": "remark",
          "type": "string"
        },
        {
          "indexed": false,
          "internalType": "uint256",
          "name": "age",
          "type": "uint256"
        }
      ],
      "name": "VoterAdded",
      "type": "event"
    },
    {
      "inputs": [],
      "name": "_candidateId",
      "outputs": [
        {
          "internalType": "uint256",
          "name": "_value",
          "type": "uint256"
        }
      ],
      "stateMutability": "view",
      "type": "function",
      "constant": true
    },
    {
      "inputs": [],
      "name": "_voterId",
      "outputs": [
        {
          "internalType": "uint256",
          "name": "_value",
          "type": "uint256"
        }
      ],
      "stateMutability": "view",
      "type": "function",
      "constant": true
    },
    {
      "inputs": [
        {
          "internalType": "uint256",
          "name": "",
          "type": "uint256"
        }
      ],
      "name": "candidateAddress",
      "outputs": [
        {
          "internalType": "address",
          "name": "",
          "type": "address"
        }
      ],
      "stateMutability": "view",
      "type": "function",
      "constant": true
    },
    {
      "inputs": [
        {
          "internalType": "address",
          "name": "",
          "type": "address"
        }
      ],
      "name": "candidates",
      "outputs": [
        {
          "internalType": "uint256",
          "name": "candidateId",
          "type": "uint256"
        },
        {
          "internalType": "uint256",
          "name": "age",
          "type": "uint256"
        },
        {
          "internalType": "string",
          "name": "name",
          "type": "string"
        },
        {
          "internalType": "string",
          "name": "image",
          "type": "string"
        },
        {
          "internalType": "uint256",
          "name": "votecount",
          "type": "uint256"
        },
        {
          "internalType": "address",
          "name": "_address",
          "type": "address"
        },
        {
          "internalType": "string",
          "name": "moto",
          "type": "string"
        }
      ],
      "stateMutability": "view",
      "type": "function",
      "constant": true
    },
    {
      "inputs": [
        {
          "internalType": "uint256",
          "name": "",
          "type": "uint256"
        }
      ],
      "name": "votedVoters",
      "outputs": [
        {
          "internalType": "address",
          "name": "",
          "type": "address"
        }
      ],
      "stateMutability": "view",
      "type": "function",
      "constant": true
    },
    {
      "inputs": [
        {
          "internalType": "address",
          "name": "",
          "type": "address"
        }
      ],
      "name": "voters",
      "outputs": [
        {
          "internalType": "uint256",
          "name": "voterId",
          "type": "uint256"
        },
        {
          "internalType": "string",
          "name": "name",
          "type": "string"
        },
        {
          "internalType": "string",
          "name": "image",
          "type": "string"
        },
        {
          "internalType": "address",
          "name": "_address",
          "type": "address"
        },
        {
          "internalType": "uint256",
          "name": "allowed",
          "type": "uint256"
        },
        {
          "internalType": "bool",
          "name": "voted",
          "type": "bool"
        },
        {
          "internalType": "uint256",
          "name": "votedCandidateId",
          "type": "uint256"
        },
        {
          "internalType": "string",
          "name": "remark",
          "type": "string"
        },
        {
          "internalType": "uint256",
          "name": "age",
          "type": "uint256"
        }
      ],
      "stateMutability": "view",
      "type": "function",
      "constant": true
    },
    {
      "inputs": [
        {
          "internalType": "uint256",
          "name": "",
          "type": "uint256"
        }
      ],
      "name": "votersAddress",
      "outputs": [
        {
          "internalType": "address",
          "name": "",
          "type": "address"
        }
      ],
      "stateMutability": "view",
      "type": "function",
      "constant": true
    },
    {
      "inputs": [],
      "name": "votingOrganizer",
      "outputs": [
        {
          "internalType": "address",
          "name": "",
          "type": "address"
        }
      ],
      "stateMutability": "view",
      "type": "function",
      "constant": true
    },
    {
      "inputs": [
        {
          "internalType": "uint256",
          "name": "_age",
          "type": "uint256"
        },
        {
          "internalType": "string",
          "name": "_name",
          "type": "string"
        },
        {
          "internalType": "string",
          "name": "_image",
          "type": "string"
        },
        {
          "internalType": "address",
          "name": "_address",
          "type": "address"
        },
        {
          "internalType": "string",
          "name": "_moto",
          "type": "string"
        }
      ],
      "name": "addCandidate",
      "outputs": [],
      "stateMutability": "nonpayable",
      "type": "function"
    },
    {
      "inputs": [],
      "name": "readAllAddress",
      "outputs": [
        {
          "internalType": "address[]",
          "name": "",
          "type": "address[]"
        }
      ],
      "stateMutability": "view",
      "type": "function",
      "constant": true
    },
    {
      "inputs": [],
      "name": "readCandidateNumber",
      "outputs": [
        {
          "internalType": "uint256",
          "name": "",
          "type": "uint256"
        }
      ],
      "stateMutability": "view",
      "type": "function",
      "constant": true
    },
    {
      "inputs": [
        {
          "internalType": "address",
          "name": "_address",
          "type": "address"
        }
      ],
      "name": "readCandidateData",
      "outputs": [
        {
          "internalType": "uint256",
          "name": "",
          "type": "uint256"
        },
        {
          "internalType": "uint256",
          "name": "",
          "type": "uint256"
        },
        {
          "internalType": "string",
          "name": "",
          "type": "string"
        },
        {
          "internalType": "string",
          "name": "",
          "type": "string"
        },
        {
          "internalType": "uint256",
          "name": "",
          "type": "uint256"
        },
        {
          "internalType": "address",
          "name": "",
          "type": "address"
        },
        {
          "internalType": "string",
          "name": "",
          "type": "string"
        }
      ],
      "stateMutability": "view",
      "type": "function",
      "constant": true
    },
    {
      "inputs": [
        {
          "internalType": "string",
          "name": "_name",
          "type": "string"
        },
        {
          "internalType": "string",
          "name": "_image",
          "type": "string"
        },
        {
          "internalType": "address",
          "name": "_address",
          "type": "address"
        },
        {
          "internalType": "string",
          "name": "_remark",
          "type": "string"
        },
        {
          "internalType": "uint256",
          "name": "_age",
          "type": "uint256"
        }
      ],
      "name": "addVoter",
      "outputs": [],
      "stateMutability": "nonpayable",
      "type": "function"
    },
    {
      "inputs": [
        {
          "internalType": "uint256",
          "name": "_candidateID",
          "type": "uint256"
        },
        {
          "internalType": "address",
          "name": "_candidateAddress",
          "type": "address"
        }
      ],
      "name": "addVote",
      "outputs": [],
      "stateMutability": "nonpayable",
      "type": "function"
    },
    {
      "inputs": [],
      "name": "readVoterNumber",
      "outputs": [
        {
          "internalType": "uint256",
          "name": "",
          "type": "uint256"
        }
      ],
      "stateMutability": "view",
      "type": "function",
      "constant": true
    },
    {
      "inputs": [],
      "name": "readAllVoters",
      "outputs": [
        {
          "internalType": "address[]",
          "name": "",
          "type": "address[]"
        }
      ],
      "stateMutability": "view",
      "type": "function",
      "constant": true
    },
    {
      "inputs": [],
      "name": "readAllVotedVoters",
      "outputs": [
        {
          "internalType": "address[]",
          "name": "",
          "type": "address[]"
        }
      ],
      "stateMutability": "view",
      "type": "function",
      "constant": true
    },
    {
      "inputs": [
        {
          "internalType": "address",
          "name": "_address",
          "type": "address"
        }
      ],
      "name": "readVoterData",
      "outputs": [
        {
          "internalType": "string",
          "name": "",
          "type": "string"
        },
        {
          "internalType": "string",
          "name": "",
          "type": "string"
        },
        {
          "internalType": "uint256",
          "name": "",
          "type": "uint256"
        },
        {
          "internalType": "bool",
          "name": "",
          "type": "bool"
        },
        {
          "internalType": "uint256",
          "name": "",
          "type": "uint256"
        },
        {
          "internalType": "string",
          "name": "",
          "type": "string"
        },
        {
          "internalType": "uint256",
          "name": "",
          "type": "uint256"
        }
      ],
      "stateMutability": "view",
      "type": "function",
      "constant": true
    }
  ],
  "bytecode": "0x608060405234801561001057600080fd5b5033600260006101000a81548173ffffffffffffffffffffffffffffffffffffffff021916908373ffffffffffffffffffffffffffffffffffffffff1602179055506126f3806100616000396000f3fe608060405234801561001057600080fd5b50600436106101165760003560e01c80636f1f6953116100a2578063a3ec138d11610071578063a3ec138d1461031b578063a738896714610353578063ae18504414610371578063b9be31521461038f578063fc8954e6146103ad57610116565b80636f1f6953146102635780637831ffb3146102995780638ab66a90146102c9578063a3eb7d28146102ff57610116565b80633734af01116100e95780633734af01146101915780633a88251a146101af5780633b3a2348146101df57806343242daa146102155780635cc48aa71461024557610116565b8063053057cc1461011b57806308d4a8ca14610139578063129b873b146101575780632976dfce14610173575b600080fd5b6101236103c9565b6040516101309190611ac3565b60405180910390f35b610141610457565b60405161014e9190611ac3565b60405180910390f35b610171600480360381019061016c9190611b5b565b6104e5565b005b61017b6106fc565b6040516101889190611ac3565b60405180910390f35b61019961078a565b6040516101a69190611baa565b60405180910390f35b6101c960048036038101906101c49190611bc5565b610797565b6040516101d69190611c01565b60405180910390f35b6101f960048036038101906101f49190611c1c565b6107d6565b60405161020c9796959493929190611cfd565b60405180910390f35b61022f600480360381019061022a9190611bc5565b610b7e565b60405161023c9190611c01565b60405180910390f35b61024d610bbd565b60405161025a9190611c01565b60405180910390f35b61027d60048036038101906102789190611c1c565b610be3565b6040516102909796959493929190611d81565b60405180910390f35b6102b360048036038101906102ae9190611bc5565b610f9d565b6040516102c09190611c01565b60405180910390f35b6102e360048036038101906102de9190611c1c565b610fdc565b6040516102f69796959493929190611d81565b60405180910390f35b61031960048036038101906103149190611f3a565b6111d6565b005b61033560048036038101906103309190611c1c565b61141a565b60405161034a99989796959493929190612009565b60405180910390f35b61035b61162d565b6040516103689190611baa565b60405180910390f35b610379611639565b6040516103869190611baa565b60405180910390f35b610397611646565b6040516103a49190611baa565b60405180910390f35b6103c760048036038101906103c291906120ab565b611652565b005b6060600680548060200260200160405190810160405280929190818152602001828054801561044d57602002820191906000526020600020905b8160009054906101000a900473ffffffffffffffffffffffffffffffffffffffff1673ffffffffffffffffffffffffffffffffffffffff1681526020019060010190808311610403575b5050505050905090565b606060058054806020026020016040519081016040528092919081815260200182805480156104db57602002820191906000526020600020905b8160009054906101000a900473ffffffffffffffffffffffffffffffffffffffff1673ffffffffffffffffffffffffffffffffffffffff1681526020019060010190808311610491575b5050505050905090565b6000600760003373ffffffffffffffffffffffffffffffffffffffff1673ffffffffffffffffffffffffffffffffffffffff16815260200190815260200160002090506000600460008473ffffffffffffffffffffffffffffffffffffffff1673ffffffffffffffffffffffffffffffffffffffff168152602001908152602001600020905060018260040154146105b2576040517f08c379a00000000000000000000000000000000000000000000000000000000081526004016105a9906121c6565b60405180910390fd5b600015158260050160009054906101000a900460ff1615151461060a576040517f08c379a000000000000000000000000000000000000000000000000000000000815260040161060190612232565b60405180910390fd5b6000816000015411610651576040517f08c379a00000000000000000000000000000000000000000000000000000000081526004016106489061229e565b60405180910390fd5b60018260050160006101000a81548160ff021916908315150217905550838260060181905550600181600401600082825461068c91906122ed565b925050819055506005339080600181540180825580915050600190039060005260206000200160009091909190916101000a81548173ffffffffffffffffffffffffffffffffffffffff021916908373ffffffffffffffffffffffffffffffffffffffff16021790555050505050565b6060600380548060200260200160405190810160405280929190818152602001828054801561078057602002820191906000526020600020905b8160009054906101000a900473ffffffffffffffffffffffffffffffffffffffff1673ffffffffffffffffffffffffffffffffffffffff1681526020019060010190808311610736575b5050505050905090565b6000600680549050905090565b600381815481106107a757600080fd5b906000526020600020016000915054906101000a900473ffffffffffffffffffffffffffffffffffffffff1681565b606080600080600060606000600760008973ffffffffffffffffffffffffffffffffffffffff1673ffffffffffffffffffffffffffffffffffffffff168152602001908152602001600020600101600760008a73ffffffffffffffffffffffffffffffffffffffff1673ffffffffffffffffffffffffffffffffffffffff168152602001908152602001600020600201600760008b73ffffffffffffffffffffffffffffffffffffffff1673ffffffffffffffffffffffffffffffffffffffff16815260200190815260200160002060040154600760008c73ffffffffffffffffffffffffffffffffffffffff1673ffffffffffffffffffffffffffffffffffffffff16815260200190815260200160002060050160009054906101000a900460ff16600760008d73ffffffffffffffffffffffffffffffffffffffff1673ffffffffffffffffffffffffffffffffffffffff16815260200190815260200160002060060154600760008e73ffffffffffffffffffffffffffffffffffffffff1673ffffffffffffffffffffffffffffffffffffffff168152602001908152602001600020600701600760008f73ffffffffffffffffffffffffffffffffffffffff1673ffffffffffffffffffffffffffffffffffffffff168152602001908152602001600020600801548680546109cd90612372565b80601f01602080910402602001604051908101604052809291908181526020018280546109f990612372565b8015610a465780601f10610a1b57610100808354040283529160200191610a46565b820191906000526020600020905b815481529060010190602001808311610a2957829003601f168201915b50505050509650858054610a5990612372565b80601f0160208091040260200160405190810160405280929190818152602001828054610a8590612372565b8015610ad25780601f10610aa757610100808354040283529160200191610ad2565b820191906000526020600020905b815481529060010190602001808311610ab557829003601f168201915b50505050509550818054610ae590612372565b80601f0160208091040260200160405190810160405280929190818152602001828054610b1190612372565b8015610b5e5780601f10610b3357610100808354040283529160200191610b5e565b820191906000526020600020905b815481529060010190602001808311610b4157829003601f168201915b505050505091509650965096509650965096509650919395979092949650565b60068181548110610b8e57600080fd5b906000526020600020016000915054906101000a900473ffffffffffffffffffffffffffffffffffffffff1681565b600260009054906101000a900473ffffffffffffffffffffffffffffffffffffffff1681565b6000806060806000806060600460008973ffffffffffffffffffffffffffffffffffffffff1673ffffffffffffffffffffffffffffffffffffffff16815260200190815260200160002060000154600460008a73ffffffffffffffffffffffffffffffffffffffff1673ffffffffffffffffffffffffffffffffffffffff16815260200190815260200160002060010154600460008b73ffffffffffffffffffffffffffffffffffffffff1673ffffffffffffffffffffffffffffffffffffffff168152602001908152602001600020600201600460008c73ffffffffffffffffffffffffffffffffffffffff1673ffffffffffffffffffffffffffffffffffffffff168152602001908152602001600020600301600460008d73ffffffffffffffffffffffffffffffffffffffff1673ffffffffffffffffffffffffffffffffffffffff16815260200190815260200160002060040154600460008e73ffffffffffffffffffffffffffffffffffffffff1673ffffffffffffffffffffffffffffffffffffffff16815260200190815260200160002060050160009054906101000a900473ffffffffffffffffffffffffffffffffffffffff16600460008f73ffffffffffffffffffffffffffffffffffffffff1673ffffffffffffffffffffffffffffffffffffffff168152602001908152602001600020600601848054610dec90612372565b80601f0160208091040260200160405190810160405280929190818152602001828054610e1890612372565b8015610e655780601f10610e3a57610100808354040283529160200191610e65565b820191906000526020600020905b815481529060010190602001808311610e4857829003601f168201915b50505050509450838054610e7890612372565b80601f0160208091040260200160405190810160405280929190818152602001828054610ea490612372565b8015610ef15780601f10610ec657610100808354040283529160200191610ef1565b820191906000526020600020905b815481529060010190602001808311610ed457829003601f168201915b50505050509350808054610f0490612372565b80601f0160208091040260200160405190810160405280929190818152602001828054610f3090612372565b8015610f7d5780601f10610f5257610100808354040283529160200191610f7d565b820191906000526020600020905b815481529060010190602001808311610f6057829003601f168201915b505050505090509650965096509650965096509650919395979092949650565b60058181548110610fad57600080fd5b906000526020600020016000915054906101000a900473ffffffffffffffffffffffffffffffffffffffff1681565b600460205280600052604060002060009150905080600001549080600101549080600201805461100b90612372565b80601f016020809104026020016040519081016040528092919081815260200182805461103790612372565b80156110845780601f1061105957610100808354040283529160200191611084565b820191906000526020600020905b81548152906001019060200180831161106757829003601f168201915b50505050509080600301805461109990612372565b80601f01602080910402602001604051908101604052809291908181526020018280546110c590612372565b80156111125780601f106110e757610100808354040283529160200191611112565b820191906000526020600020905b8154815290600101906020018083116110f557829003601f168201915b5050505050908060040154908060050160009054906101000a900473ffffffffffffffffffffffffffffffffffffffff169080600601805461115390612372565b80601f016020809104026020016040519081016040528092919081815260200182805461117f90612372565b80156111cc5780601f106111a1576101008083540402835291602001916111cc565b820191906000526020600020905b8154815290600101906020018083116111af57829003601f168201915b5050505050905087565b600260009054906101000a900473ffffffffffffffffffffffffffffffffffffffff1673ffffffffffffffffffffffffffffffffffffffff163373ffffffffffffffffffffffffffffffffffffffff1614611266576040517f08c379a000000000000000000000000000000000000000000000000000000000815260040161125d90612416565b60405180910390fd5b611270600161190c565b600061127c6001611922565b90506000600460008573ffffffffffffffffffffffffffffffffffffffff1673ffffffffffffffffffffffffffffffffffffffff1681526020019081526020016000209050818160000181905550868160010181905550858160020190805190602001906112eb929190611930565b5084816003019080519060200190611304929190611930565b5060008160040181905550838160050160006101000a81548173ffffffffffffffffffffffffffffffffffffffff021916908373ffffffffffffffffffffffffffffffffffffffff1602179055508281600601908051906020019061136a929190611930565b506003849080600181540180825580915050600190039060005260206000200160009091909190916101000a81548173ffffffffffffffffffffffffffffffffffffffff021916908373ffffffffffffffffffffffffffffffffffffffff160217905550817fc4a90a4b4757de041c079ad408e4412ac2d3f20bf7d130669c928c89b09c1208888888600089896040516114099695949392919061247b565b60405180910390a250505050505050565b600760205280600052604060002060009150905080600001549080600101805461144390612372565b80601f016020809104026020016040519081016040528092919081815260200182805461146f90612372565b80156114bc5780601f10611491576101008083540402835291602001916114bc565b820191906000526020600020905b81548152906001019060200180831161149f57829003601f168201915b5050505050908060020180546114d190612372565b80601f01602080910402602001604051908101604052809291908181526020018280546114fd90612372565b801561154a5780601f1061151f5761010080835404028352916020019161154a565b820191906000526020600020905b81548152906001019060200180831161152d57829003601f168201915b5050505050908060030160009054906101000a900473ffffffffffffffffffffffffffffffffffffffff16908060040154908060050160009054906101000a900460ff16908060060154908060070180546115a490612372565b80601f01602080910402602001604051908101604052809291908181526020018280546115d090612372565b801561161d5780601f106115f25761010080835404028352916020019161161d565b820191906000526020600020905b81548152906001019060200180831161160057829003601f168201915b5050505050908060080154905089565b60018060000154905081565b6000600380549050905090565b60008060000154905081565b600260009054906101000a900473ffffffffffffffffffffffffffffffffffffffff1673ffffffffffffffffffffffffffffffffffffffff163373ffffffffffffffffffffffffffffffffffffffff16146116e2576040517f08c379a00000000000000000000000000000000000000000000000000000000081526004016116d990612563565b60405180910390fd5b6000600760008573ffffffffffffffffffffffffffffffffffffffff1673ffffffffffffffffffffffffffffffffffffffff1681526020019081526020016000209050600081600401541461176c576040517f08c379a0000000000000000000000000000000000000000000000000000000008152600401611763906125cf565b60405180910390fd5b611776600061190c565b6117806000611922565b8160000181905550858160010190805190602001906117a0929190611930565b50848160020190805190602001906117b9929190611930565b50838160030160006101000a81548173ffffffffffffffffffffffffffffffffffffffff021916908373ffffffffffffffffffffffffffffffffffffffff1602179055506001816004018190555060008160050160006101000a81548160ff0219169083151502179055506103e8816006018190555082816007019080519060200190611847929190611930565b508181600801819055506006849080600181540180825580915050600190039060005260206000200160009091909190916101000a81548173ffffffffffffffffffffffffffffffffffffffff021916908373ffffffffffffffffffffffffffffffffffffffff16021790555080600001547fdbde32ad256f881b265b5aa5d3cdd2786de51b8e5d489e002b5495bdd1102d7e8787876001600087600601548a8a6040516118fc98979695949392919061262a565b60405180910390a2505050505050565b6001816000016000828254019250508190555050565b600081600001549050919050565b82805461193c90612372565b90600052602060002090601f01602090048101928261195e57600085556119a5565b82601f1061197757805160ff19168380011785556119a5565b828001600101855582156119a5579182015b828111156119a4578251825591602001919060010190611989565b5b5090506119b291906119b6565b5090565b5b808211156119cf5760008160009055506001016119b7565b5090565b600081519050919050565b600082825260208201905092915050565b6000819050602082019050919050565b600073ffffffffffffffffffffffffffffffffffffffff82169050919050565b6000611a2a826119ff565b9050919050565b611a3a81611a1f565b82525050565b6000611a4c8383611a31565b60208301905092915050565b6000602082019050919050565b6000611a70826119d3565b611a7a81856119de565b9350611a85836119ef565b8060005b83811015611ab6578151611a9d8882611a40565b9750611aa883611a58565b925050600181019050611a89565b5085935050505092915050565b60006020820190508181036000830152611add8184611a65565b905092915050565b6000604051905090565b600080fd5b600080fd5b6000819050919050565b611b0c81611af9565b8114611b1757600080fd5b50565b600081359050611b2981611b03565b92915050565b611b3881611a1f565b8114611b4357600080fd5b50565b600081359050611b5581611b2f565b92915050565b60008060408385031215611b7257611b71611aef565b5b6000611b8085828601611b1a565b9250506020611b9185828601611b46565b9150509250929050565b611ba481611af9565b82525050565b6000602082019050611bbf6000830184611b9b565b92915050565b600060208284031215611bdb57611bda611aef565b5b6000611be984828501611b1a565b91505092915050565b611bfb81611a1f565b82525050565b6000602082019050611c166000830184611bf2565b92915050565b600060208284031215611c3257611c31611aef565b5b6000611c4084828501611b46565b91505092915050565b600081519050919050565b600082825260208201905092915050565b60005b83811015611c83578082015181840152602081019050611c68565b83811115611c92576000848401525b50505050565b6000601f19601f8301169050919050565b6000611cb482611c49565b611cbe8185611c54565b9350611cce818560208601611c65565b611cd781611c98565b840191505092915050565b60008115159050919050565b611cf781611ce2565b82525050565b600060e0820190508181036000830152611d17818a611ca9565b90508181036020830152611d2b8189611ca9565b9050611d3a6040830188611b9b565b611d476060830187611cee565b611d546080830186611b9b565b81810360a0830152611d668185611ca9565b9050611d7560c0830184611b9b565b98975050505050505050565b600060e082019050611d96600083018a611b9b565b611da36020830189611b9b565b8181036040830152611db58188611ca9565b90508181036060830152611dc98187611ca9565b9050611dd86080830186611b9b565b611de560a0830185611bf2565b81810360c0830152611df78184611ca9565b905098975050505050505050565b600080fd5b600080fd5b7f4e487b7100000000000000000000000000000000000000000000000000000000600052604160045260246000fd5b611e4782611c98565b810181811067ffffffffffffffff82111715611e6657611e65611e0f565b5b80604052505050565b6000611e79611ae5565b9050611e858282611e3e565b919050565b600067ffffffffffffffff821115611ea557611ea4611e0f565b5b611eae82611c98565b9050602081019050919050565b82818337600083830152505050565b6000611edd611ed884611e8a565b611e6f565b905082815260208101848484011115611ef957611ef8611e0a565b5b611f04848285611ebb565b509392505050565b600082601f830112611f2157611f20611e05565b5b8135611f31848260208601611eca565b91505092915050565b600080600080600060a08688031215611f5657611f55611aef565b5b6000611f6488828901611b1a565b955050602086013567ffffffffffffffff811115611f8557611f84611af4565b5b611f9188828901611f0c565b945050604086013567ffffffffffffffff811115611fb257611fb1611af4565b5b611fbe88828901611f0c565b9350506060611fcf88828901611b46565b925050608086013567ffffffffffffffff811115611ff057611fef611af4565b5b611ffc88828901611f0c565b9150509295509295909350565b60006101208201905061201f600083018c611b9b565b8181036020830152612031818b611ca9565b90508181036040830152612045818a611ca9565b90506120546060830189611bf2565b6120616080830188611b9b565b61206e60a0830187611cee565b61207b60c0830186611b9b565b81810360e083015261208d8185611ca9565b905061209d610100830184611b9b565b9a9950505050505050505050565b600080600080600060a086880312156120c7576120c6611aef565b5b600086013567ffffffffffffffff8111156120e5576120e4611af4565b5b6120f188828901611f0c565b955050602086013567ffffffffffffffff81111561211257612111611af4565b5b61211e88828901611f0c565b945050604061212f88828901611b46565b935050606086013567ffffffffffffffff8111156121505761214f611af4565b5b61215c88828901611f0c565b925050608061216d88828901611b1a565b9150509295509295909350565b7f596f752063616e6e6f7420766f74650000000000000000000000000000000000600082015250565b60006121b0600f83611c54565b91506121bb8261217a565b602082019050919050565b600060208201905081810360008301526121df816121a3565b9050919050565b7f566f7465722068617320616c726561647920766f746564000000000000000000600082015250565b600061221c601783611c54565b9150612227826121e6565b602082019050919050565b6000602082019050818103600083015261224b8161220f565b9050919050565b7f43616e64696461746520646f6573206e6f742065786973740000000000000000600082015250565b6000612288601883611c54565b915061229382612252565b602082019050919050565b600060208201905081810360008301526122b78161227b565b9050919050565b7f4e487b7100000000000000000000000000000000000000000000000000000000600052601160045260246000fd5b60006122f882611af9565b915061230383611af9565b9250827fffffffffffffffffffffffffffffffffffffffffffffffffffffffffffffffff03821115612338576123376122be565b5b828201905092915050565b7f4e487b7100000000000000000000000000000000000000000000000000000000600052602260045260246000fd5b6000600282049050600182168061238a57607f821691505b6020821081141561239e5761239d612343565b5b50919050565b7f4f6e6c7920746865206f7267616e697a65722063616e206164642063616e646960008201527f6461746573000000000000000000000000000000000000000000000000000000602082015250565b6000612400602583611c54565b915061240b826123a4565b604082019050919050565b6000602082019050818103600083015261242f816123f3565b9050919050565b6000819050919050565b6000819050919050565b600061246561246061245b84612436565b612440565b611af9565b9050919050565b6124758161244a565b82525050565b600060c0820190506124906000830189611b9b565b81810360208301526124a28188611ca9565b905081810360408301526124b68187611ca9565b90506124c5606083018661246c565b6124d26080830185611bf2565b81810360a08301526124e48184611ca9565b9050979650505050505050565b7f4f6e6c7920746865206f7267616e697a65722063616e2061646420766f74657260008201527f7300000000000000000000000000000000000000000000000000000000000000602082015250565b600061254d602183611c54565b9150612558826124f1565b604082019050919050565b6000602082019050818103600083015261257c81612540565b9050919050565b7f566f74657220616c726561647920657869737473000000000000000000000000600082015250565b60006125b9601483611c54565b91506125c482612583565b602082019050919050565b600060208201905081810360008301526125e8816125ac565b9050919050565b6000819050919050565b600061261461260f61260a846125ef565b612440565b611af9565b9050919050565b612624816125f9565b82525050565b6000610100820190508181036000830152612645818b611ca9565b90508181036020830152612659818a611ca9565b90506126686040830189611bf2565b612675606083018861261b565b6126826080830187611cee565b61268f60a0830186611b9b565b81810360c08301526126a18185611ca9565b90506126b060e0830184611b9b565b999850505050505050505056fea26469706673582212204c1c6db330d72649508653fc261e5a99e773f72b34bb115254df9e4ae4f3f8d464736f6c63430008090033",
  "immutableReferences": {},
  "source": "\n//SPDX-License-Identifier: UNLICENSED\n\npragma solidity ^0.8.9;\n\nimport \"@openzeppelin/contracts/utils/Counters.sol\";\n\ncontract Lock {\n  using Counters for Counters.Counter;\n  Counters.Counter public _voterId;\n  Counters.Counter public _candidateId;\n\n  address public votingOrganizer;\n\n  struct Candidate {\n    uint256 candidateId;\n    uint256 age;\n    string name;\n    string image;\n    uint256 votecount;\n    address _address;\n    string moto;\n  }\n\n  address[] public candidateAddress;\n\n  event CandidateAdded(\n    uint256 indexed candidateId,\n    uint256 age,\n    string name,\n    string image,\n    uint256 votecount,\n    address _address,\n    string moto\n  );\n\n  mapping(address => Candidate) public candidates;\n\n  struct Voter {\n    uint256 voterId;\n    string name;\n    string image;\n    address _address;\n    uint256 allowed;\n    bool voted;\n    uint256 votedCandidateId;\n    string remark;\n    uint256 age;\n  }\n  \n  event VoterAdded(\n    uint256 indexed voterId,\n    string name,\n    string image,\n    address _address,\n    uint256 allowed,\n    bool voted,\n    uint256 votedCandidateId,\n    string remark,\n    uint256 age\n  );\n\n  address[] public votedVoters;\n  address[] public votersAddress;\n  mapping(address => Voter) public voters;\n\n  constructor() {\n    votingOrganizer = msg.sender;\n  }\n\n  function addCandidate(\n    uint256 _age,\n    string memory _name,\n    string memory _image,\n    address _address,\n    string memory _moto\n  ) public {\n    require(msg.sender == votingOrganizer, \"Only the organizer can add candidates\");\n    _candidateId.increment();\n    uint256 candidateId = _candidateId.current();\n    Candidate storage candidate = candidates[_address];\n    candidate.candidateId = candidateId;\n    candidate.age = _age;\n    candidate.name = _name;\n    candidate.image = _image;\n    candidate.votecount = 0;\n    candidate._address = _address;\n    candidate.moto = _moto;\n    candidateAddress.push(_address);\n    emit CandidateAdded(candidateId, _age, _name, _image, 0, _address, _moto);\n  }\n\n  function readAllAddress() public view returns (address[] memory) {\n    return candidateAddress;\n  }\n\n  function readCandidateNumber() public view returns (uint256) {\n    return candidateAddress.length;\n  }\n\n  function readCandidateData(address _address)\n    public\n    view\n    returns (\n      uint256,\n      uint256,\n      string memory,\n      string memory,\n      uint256,\n      address,\n      string memory\n    )\n  {\n    return (\n      candidates[_address].candidateId,\n      candidates[_address].age,\n      candidates[_address].name,\n      candidates[_address].image,\n      candidates[_address].votecount,\n      candidates[_address]._address,\n      candidates[_address].moto\n    );\n  }\n\n  function addVoter(\n    string memory _name,\n    string memory _image,\n    address _address,\n    string memory _remark,\n    uint256 _age\n  ) public {\n    require(msg.sender == votingOrganizer, \"Only the organizer can add voters\");\n    Voter storage voter = voters[_address];\n    require(voter.allowed == 0, \"Voter already exists\");\n\n    _voterId.increment();\n\n    voter.voterId = _voterId.current();\n    voter.name = _name;\n    voter.image = _image;\n    voter._address = _address;\n    voter.allowed = 1;\n    voter.voted = false;\n    voter.votedCandidateId = 1000;\n    voter.remark = _remark;\n    voter.age = _age;\n    votersAddress.push(_address);\n    emit VoterAdded(voter.voterId, _name, _image, _address, 1, false, voter.votedCandidateId, _remark, _age);\n  }\n\n  function addVote(uint256 _candidateID, address _candidateAddress) external {\n    Voter storage voter = voters[msg.sender];\n    Candidate storage candidate = candidates[_candidateAddress];\n    require(voter.allowed == 1, \"You cannot vote\");\n    require(voter.voted == false, \"Voter has already voted\");\n    require(candidate.candidateId > 0, \"Candidate does not exist\");\n\n    voter.voted = true;\n    voter.votedCandidateId = _candidateID;\n    candidate.votecount += 1;\n    votedVoters.push(msg.sender);\n  }\n\n  function readVoterNumber() public view returns (uint256) {\n    return votersAddress.length;\n  }\n\n  function readAllVoters() public view returns (address[] memory) {\n    return votersAddress;\n  }\n\n  function readAllVotedVoters() public view returns (address[] memory) {\n    return votedVoters;\n  }\n\n  function readVoterData(address _address)\n    public\n    view\n    returns (\n      string memory,\n      string memory,\n      uint256,\n      bool,\n      uint256,\n      string memory,\n      uint256\n    )\n  {\n    return (\n      voters[_address].name,\n      voters[_address].image,\n      voters[_address].allowed,\n      voters[_address].voted,\n      voters[_address].votedCandidateId,\n      voters[_address].remark,\n      voters[_address].age\n    );\n  }\n}\n",
  "sourcePath": "/home/rs/Coding/Web3/dvoting/contracts/Lock.sol",
  "compiler": {
    "name": "solc",
    "version": "0.8.9+commit.e5eed63a.Emscripten.clang"
  },
  "schemaVersion": "3.4.16",
  "updatedAt": "2024-05-28T11:34:11.618Z",
  "networkType": "ethereum",
  "devdoc": {
    "kind": "dev",
    "methods": {},
    "version": 1
  },
  "userdoc": {
    "kind": "user",
    "methods": {},
    "version": 1
  }
}